{
  "_format": "hh-sol-artifact-1",
  "contractName": "BatchTransferAdmin",
  "sourceName": "contracts/batchTransferAdmin.sol",
  "abi": [
    {
      "inputs": [],
      "stateMutability": "nonpayable",
      "type": "constructor"
    },
    {
      "inputs": [],
      "name": "EnforcedPause",
      "type": "error"
    },
    {
      "inputs": [],
      "name": "ExpectedPause",
      "type": "error"
    },
    {
      "inputs": [],
      "name": "ReentrancyGuardReentrantCall",
      "type": "error"
    },
    {
      "anonymous": false,
      "inputs": [
        {
          "indexed": true,
          "internalType": "address",
          "name": "admin",
          "type": "address"
        }
      ],
      "name": "AdminAdded",
      "type": "event"
    },
    {
      "anonymous": false,
      "inputs": [
        {
          "indexed": true,
          "internalType": "address",
          "name": "admin",
          "type": "address"
        }
      ],
      "name": "AdminRemoved",
      "type": "event"
    },
    {
      "anonymous": false,
      "inputs": [
        {
          "indexed": true,
          "internalType": "address",
          "name": "sender",
          "type": "address"
        },
        {
          "indexed": false,
          "internalType": "uint256",
          "name": "totalAmount",
          "type": "uint256"
        }
      ],
      "name": "BatchEtherTransferred",
      "type": "event"
    },
    {
      "anonymous": false,
      "inputs": [
        {
          "indexed": true,
          "internalType": "address",
          "name": "previousOwner",
          "type": "address"
        },
        {
          "indexed": true,
          "internalType": "address",
          "name": "newOwner",
          "type": "address"
        }
      ],
      "name": "BatchOwnershipTransferred",
      "type": "event"
    },
    {
      "anonymous": false,
      "inputs": [
        {
          "indexed": true,
          "internalType": "address",
          "name": "token",
          "type": "address"
        },
        {
          "indexed": true,
          "internalType": "address",
          "name": "sender",
          "type": "address"
        },
        {
          "indexed": false,
          "internalType": "uint256",
          "name": "totalAmount",
          "type": "uint256"
        }
      ],
      "name": "BatchTokenTransferred",
      "type": "event"
    },
    {
      "anonymous": false,
      "inputs": [
        {
          "indexed": false,
          "internalType": "address",
          "name": "account",
          "type": "address"
        }
      ],
      "name": "Paused",
      "type": "event"
    },
    {
      "anonymous": false,
      "inputs": [
        {
          "indexed": false,
          "internalType": "address",
          "name": "account",
          "type": "address"
        }
      ],
      "name": "Unpaused",
      "type": "event"
    },
    {
      "inputs": [
        {
          "internalType": "address",
          "name": "admin",
          "type": "address"
        }
      ],
      "name": "addAdmin",
      "outputs": [],
      "stateMutability": "nonpayable",
      "type": "function"
    },
    {
      "inputs": [
        {
          "internalType": "address",
          "name": "",
          "type": "address"
        }
      ],
      "name": "admins",
      "outputs": [
        {
          "internalType": "bool",
          "name": "",
          "type": "bool"
        }
      ],
      "stateMutability": "view",
      "type": "function"
    },
    {
      "inputs": [
        {
          "internalType": "address",
          "name": "tokenAddress",
          "type": "address"
        },
        {
          "internalType": "address[]",
          "name": "recipients",
          "type": "address[]"
        },
        {
          "internalType": "uint256[]",
          "name": "amounts",
          "type": "uint256[]"
        }
      ],
      "name": "batchTransfer",
      "outputs": [],
      "stateMutability": "payable",
      "type": "function"
    },
    {
      "inputs": [],
      "name": "pause",
      "outputs": [],
      "stateMutability": "nonpayable",
      "type": "function"
    },
    {
      "inputs": [],
      "name": "paused",
      "outputs": [
        {
          "internalType": "bool",
          "name": "",
          "type": "bool"
        }
      ],
      "stateMutability": "view",
      "type": "function"
    },
    {
      "inputs": [
        {
          "internalType": "address",
          "name": "admin",
          "type": "address"
        }
      ],
      "name": "removeAdmin",
      "outputs": [],
      "stateMutability": "nonpayable",
      "type": "function"
    },
    {
      "inputs": [
        {
          "internalType": "address",
          "name": "newOwner",
          "type": "address"
        }
      ],
      "name": "transferBatchOwnership",
      "outputs": [],
      "stateMutability": "nonpayable",
      "type": "function"
    },
    {
      "inputs": [],
      "name": "unpause",
      "outputs": [],
      "stateMutability": "nonpayable",
      "type": "function"
    }
  ],
  "bytecode": "0x608060405234801561001057600080fd5b506001600081815581546001600160a81b03191661010033810291909117928390556040516001600160a01b03919093041691600080516020610d7d833981519152908290a3600180546001600160a01b03610100918290048116600090815260026020526040808220805460ff1916861790559354935192909304169190600080516020610d7d833981519152908290a36001546040516101009091046001600160a01b0316907f44d6d25963f097ad14f29f06854a01f575648a1ef82f30e562ccd3889717e33990600090a2610c90806100ed6000396000f3fe60806040526004361061007b5760003560e01c8063429b62e51161004e578063429b62e5146100ea5780635c975abb1461012e57806370480275146101465780638456cb591461016657600080fd5b80631239ec8c146100805780631785f53c1461009557806323318516146100b55780633f4ba83a146100d5575b600080fd5b61009361008e366004610aaf565b61017b565b005b3480156100a157600080fd5b506100936100b0366004610b81565b61054f565b3480156100c157600080fd5b506100936100d0366004610b81565b610626565b3480156100e157600080fd5b5061009361071e565b3480156100f657600080fd5b5061011a610105366004610b81565b60026020526000908152604090205460ff1681565b604051901515815260200160405180910390f35b34801561013a57600080fd5b5060015460ff1661011a565b34801561015257600080fd5b50610093610161366004610b81565b610757565b34801561017257600080fd5b50610093610888565b3360009081526002602052604090205460ff166101d85760405162461bcd60e51b815260206004820152601660248201527521b0b63632b91034b9903737ba1030b71030b236b4b760511b60448201526064015b60405180910390fd5b6101e06108bf565b6101e86108e9565b80518251146102485760405162461bcd60e51b815260206004820152602660248201527f526563697069656e747320616e6420616d6f756e7473206c656e677468206d696044820152650e6dac2e8c6d60d31b60648201526084016101cf565b60006001600160a01b0384166103b35760005b825181101561029d5782818151811061027657610276610ba3565b6020026020010151826102899190610bcf565b91508061029581610be8565b91505061025b565b50348111156102ee5760405162461bcd60e51b815260206004820152601b60248201527f496e73756666696369656e742045746865722070726f7669646564000000000060448201526064016101cf565b60005b83518110156103785783818151811061030c5761030c610ba3565b60200260200101516001600160a01b03166108fc84838151811061033257610332610ba3565b60200260200101519081150290604051600060405180830381858888f19350505050158015610365573d6000803e3d6000fd5b508061037081610be8565b9150506102f1565b5060405181815233907f8aee7fbebb4bc30aeb0e0d2357e09401d04388da58d7940b799974a1702bfd999060200160405180910390a261053f565b8360005b83518110156104fc578381815181106103d2576103d2610ba3565b6020026020010151836103e59190610bcf565b9250816001600160a01b03166323b872dd3387848151811061040957610409610ba3565b602002602001015187858151811061042357610423610ba3565b60209081029190910101516040516001600160e01b031960e086901b1681526001600160a01b03938416600482015292909116602483015260448201526064016020604051808303816000875af1158015610482573d6000803e3d6000fd5b505050506040513d601f19601f820116820180604052508101906104a69190610c01565b6104ea5760405162461bcd60e51b8152602060048201526015602482015274151bdad95b881d1c985b9cd9995c8819985a5b1959605a1b60448201526064016101cf565b806104f481610be8565b9150506103b7565b5060405182815233906001600160a01b038716907f60144106343e2c26a35c8c8e4d8bbede6be541bb9fc96811e7fa31c011c7b68d9060200160405180910390a3505b5061054a6001600055565b505050565b60015461010090046001600160a01b0316331461057e5760405162461bcd60e51b81526004016101cf90610c23565b6001600160a01b03811660009081526002602052604090205460ff166105dd5760405162461bcd60e51b815260206004820152601460248201527310591b5a5b88191bd95cc81b9bdd08195e1a5cdd60621b60448201526064016101cf565b6001600160a01b038116600081815260026020526040808220805460ff19169055517fa3b62bc36326052d97ea62d63c3d60308ed4c3ea8ac079dd8499f1e9c4f80c0f9190a250565b60015461010090046001600160a01b031633146106555760405162461bcd60e51b81526004016101cf90610c23565b6001600160a01b0381166106b75760405162461bcd60e51b8152602060048201526024808201527f4e6577206f776e65722063616e6e6f7420626520746865207a65726f206164646044820152637265737360e01b60648201526084016101cf565b6001546040516001600160a01b0380841692610100900416907f2a9ebd1f7adcc8d6200a9c2b876dc7d7c6867181b2529227fed2f9860e9238c390600090a3600180546001600160a01b0390921661010002610100600160a81b0319909216919091179055565b60015461010090046001600160a01b0316331461074d5760405162461bcd60e51b81526004016101cf90610c23565b61075561090d565b565b60015461010090046001600160a01b031633146107865760405162461bcd60e51b81526004016101cf90610c23565b6001600160a01b0381166107dc5760405162461bcd60e51b815260206004820181905260248201527f41646d696e2063616e6e6f7420626520746865207a65726f206164647265737360448201526064016101cf565b6001600160a01b03811660009081526002602052604090205460ff161561083c5760405162461bcd60e51b815260206004820152601460248201527341646d696e20616c72656164792065786973747360601b60448201526064016101cf565b6001600160a01b038116600081815260026020526040808220805460ff19166001179055517f44d6d25963f097ad14f29f06854a01f575648a1ef82f30e562ccd3889717e3399190a250565b60015461010090046001600160a01b031633146108b75760405162461bcd60e51b81526004016101cf90610c23565b61075561095f565b6002600054036108e257604051633ee5aeb560e01b815260040160405180910390fd5b6002600055565b60015460ff16156107555760405163d93c066560e01b815260040160405180910390fd5b61091561099a565b6001805460ff191690557f5db9ee0a495bf2e6ff9c91a7834c1ba4fdd244a5e8aa4e537bd38aeae4b073aa335b6040516001600160a01b03909116815260200160405180910390a1565b6109676108e9565b6001805460ff1916811790557f62e78cea01bee320cd4e420270b5ea74000d11b0c9f74754ebdbfc544b05a25833610942565b60015460ff1661075557604051638dfc202b60e01b815260040160405180910390fd5b80356001600160a01b03811681146109d457600080fd5b919050565b634e487b7160e01b600052604160045260246000fd5b604051601f8201601f1916810167ffffffffffffffff81118282101715610a1857610a186109d9565b604052919050565b600067ffffffffffffffff821115610a3a57610a3a6109d9565b5060051b60200190565b600082601f830112610a5557600080fd5b81356020610a6a610a6583610a20565b6109ef565b82815260059290921b84018101918181019086841115610a8957600080fd5b8286015b84811015610aa45780358352918301918301610a8d565b509695505050505050565b600080600060608486031215610ac457600080fd5b610acd846109bd565b925060208085013567ffffffffffffffff80821115610aeb57600080fd5b818701915087601f830112610aff57600080fd5b8135610b0d610a6582610a20565b81815260059190911b8301840190848101908a831115610b2c57600080fd5b938501935b82851015610b5157610b42856109bd565b82529385019390850190610b31565b965050506040870135925080831115610b6957600080fd5b5050610b7786828701610a44565b9150509250925092565b600060208284031215610b9357600080fd5b610b9c826109bd565b9392505050565b634e487b7160e01b600052603260045260246000fd5b634e487b7160e01b600052601160045260246000fd5b80820180821115610be257610be2610bb9565b92915050565b600060018201610bfa57610bfa610bb9565b5060010190565b600060208284031215610c1357600080fd5b81518015158114610b9c57600080fd5b6020808252601d908201527f43616c6c6572206973206e6f7420746865206261746368206f776e657200000060408201526060019056fea26469706673582212202c2f306546770b26430eb7a137cd2ed6be54cf2fdf47a82e003fb288edd7d0dd64736f6c634300081400332a9ebd1f7adcc8d6200a9c2b876dc7d7c6867181b2529227fed2f9860e9238c3",
  "linkReferences": {},
  "deployedLinkReferences": {}
}